{
  "transactions": [
    {
      "hash": "0x574ab0fecc3f22445c9382f90ddb0c452f6d0ef6b73d174570f6d635a0b995d5",
      "transactionType": "CALL",
      "contractName": null,
      "contractAddress": "0x47e220a0bf081564d2c2ce33f9f5eafb00c0a0fa",
      "function": "mint(address,uint256)",
      "arguments": [
        "0x65150B5Fa861481651225Ef4412136DCBf696232",
        "1000000000000000000000"
      ],
      "transaction": {
        "from": "0xb33f706b1ac2543a108f40497a14f540778798fd",
        "to": "0x47e220a0bf081564d2c2ce33f9f5eafb00c0a0fa",
        "gas": "0x11571",
        "value": "0x0",
        "input": "0x40c10f1900000000000000000000000065150b5fa861481651225ef4412136dcbf69623200000000000000000000000000000000000000000000003635c9adc5dea00000",
        "nonce": "0x1c",
        "chainId": "0xaa36a7"
      },
      "additionalContracts": [],
      "isFixedGasLimit": false
    }
  ],
  "receipts": [
    {
      "status": "0x1",
      "cumulativeGasUsed": "0xb443a2",
      "logs": [
        {
          "address": "0x47e220a0bf081564d2c2ce33f9f5eafb00c0a0fa",
          "topics": [
            "0xddf252ad1be2c89b69c2b068fc378daa952ba7f163c4a11628f55a4df523b3ef",
            "0x0000000000000000000000000000000000000000000000000000000000000000",
            "0x00000000000000000000000065150b5fa861481651225ef4412136dcbf696232"
          ],
          "data": "0x00000000000000000000000000000000000000000000003635c9adc5dea00000",
          "blockHash": "0x3cae7c5ad9873a8124b3d15037404bf607f97e8bbc9f68315ed6858f647408f1",
          "blockNumber": "0x6b785a",
          "transactionHash": "0x574ab0fecc3f22445c9382f90ddb0c452f6d0ef6b73d174570f6d635a0b995d5",
          "transactionIndex": "0x3b",
          "logIndex": "0x81",
          "removed": false
        }
      ],
      "logsBloom": "0x00000000000000000010000000000400000000000000000000000000000000000000000000000000000000000000000000000000100000000000000000000008000000000000000000000008000000000000000000000000000000000000000000000000020000000000000004000800000000000000000000000010000000000000000000000000000000000000000000000000000000000000000000000000000000000000000040000000000000000000000000000000000000000000000000000002000000000000000000000000000000000000000000000000000020000000000000000000000000000000000000000000000000000000000000000000",
      "type": "0x0",
      "transactionHash": "0x574ab0fecc3f22445c9382f90ddb0c452f6d0ef6b73d174570f6d635a0b995d5",
      "transactionIndex": "0x3b",
      "blockHash": "0x3cae7c5ad9873a8124b3d15037404bf607f97e8bbc9f68315ed6858f647408f1",
      "blockNumber": "0x6b785a",
      "gasUsed": "0xc8de",
      "effectiveGasPrice": "0xbe55c4b5",
      "blobGasUsed": "0x0",
      "from": "0xb33f706b1ac2543a108f40497a14f540778798fd",
      "to": "0x47e220a0bf081564d2c2ce33f9f5eafb00c0a0fa",
      "contractAddress": null
    }
  ],
  "libraries": [],
  "pending": [],
  "returns": {},
  "timestamp": 1731163394,
  "chain": 11155111,
  "commit": "fea953a"
}