{
  "transactions": [
    {
      "hash": "0xda59736eb7edde6ca30797cefc4d733be4656b46e7a57c14a1220b1c7255a862",
      "transactionType": "CALL",
      "contractName": null,
      "contractAddress": "0x47e220a0bf081564d2c2ce33f9f5eafb00c0a0fa",
      "function": "mint(address,uint256)",
      "arguments": [
        "0x65150B5Fa861481651225Ef4412136DCBf696232",
        "1000000000000000000000"
      ],
      "transaction": {
        "from": "0xb33f706b1ac2543a108f40497a14f540778798fd",
        "to": "0x47e220a0bf081564d2c2ce33f9f5eafb00c0a0fa",
        "gas": "0xc413",
        "value": "0x0",
        "input": "0x40c10f1900000000000000000000000065150b5fa861481651225ef4412136dcbf69623200000000000000000000000000000000000000000000003635c9adc5dea00000",
        "nonce": "0x1d",
        "chainId": "0xaa36a7"
      },
      "additionalContracts": [],
      "isFixedGasLimit": false
    }
  ],
  "receipts": [
    {
      "status": "0x1",
      "cumulativeGasUsed": "0x8934ab",
      "logs": [
        {
          "address": "0x47e220a0bf081564d2c2ce33f9f5eafb00c0a0fa",
          "topics": [
            "0xddf252ad1be2c89b69c2b068fc378daa952ba7f163c4a11628f55a4df523b3ef",
            "0x0000000000000000000000000000000000000000000000000000000000000000",
            "0x00000000000000000000000065150b5fa861481651225ef4412136dcbf696232"
          ],
          "data": "0x00000000000000000000000000000000000000000000003635c9adc5dea00000",
          "blockHash": "0x2e5821804f90da7e92fff85603b7dc34ec79edc381c04a37fef6127c5d055458",
          "blockNumber": "0x6b78b3",
          "transactionHash": "0xda59736eb7edde6ca30797cefc4d733be4656b46e7a57c14a1220b1c7255a862",
          "transactionIndex": "0x2a",
          "logIndex": "0x36",
          "removed": false
        }
      ],
      "logsBloom": "0x00000000000000000010000000000400000000000000000000000000000000000000000000000000000000000000000000000000100000000000000000000008000000000000000000000008000000000000000000000000000000000000000000000000020000000000000004000800000000000000000000000010000000000000000000000000000000000000000000000000000000000000000000000000000000000000000040000000000000000000000000000000000000000000000000000002000000000000000000000000000000000000000000000000000020000000000000000000000000000000000000000000000000000000000000000000",
      "type": "0x0",
      "transactionHash": "0xda59736eb7edde6ca30797cefc4d733be4656b46e7a57c14a1220b1c7255a862",
      "transactionIndex": "0x2a",
      "blockHash": "0x2e5821804f90da7e92fff85603b7dc34ec79edc381c04a37fef6127c5d055458",
      "blockNumber": "0x6b78b3",
      "gasUsed": "0x8612",
      "effectiveGasPrice": "0xca624c4c",
      "blobGasUsed": "0x0",
      "from": "0xb33f706b1ac2543a108f40497a14f540778798fd",
      "to": "0x47e220a0bf081564d2c2ce33f9f5eafb00c0a0fa",
      "contractAddress": null
    }
  ],
  "libraries": [],
  "pending": [],
  "returns": {},
  "timestamp": 1731164559,
  "chain": 11155111,
  "commit": "fea953a"
}