{
  "transactions": [
    {
      "hash": "0x9c8743b0d40e114a74219172d2c5647e49abb5ad91a0aa5950d71ffcea65d18b",
      "transactionType": "CALL",
      "contractName": null,
      "contractAddress": "0xba4cd2a4c6b87ba9d245b0c8824c77f263807f68",
      "function": "mint(address,uint256,uint256)",
      "arguments": [
        "0x65150B5Fa861481651225Ef4412136DCBf696232",
        "10101",
        "1"
      ],
      "transaction": {
        "from": "0x2c0d48dd817deead079a814a67af406bce5b08dc",
        "to": "0xba4cd2a4c6b87ba9d245b0c8824c77f263807f68",
        "gas": "0xcafa",
        "value": "0x0",
        "input": "0x156e29f600000000000000000000000065150b5fa861481651225ef4412136dcbf69623200000000000000000000000000000000000000000000000000000000000027750000000000000000000000000000000000000000000000000000000000000001",
        "nonce": "0x22",
        "chainId": "0x1a4"
      },
      "additionalContracts": [],
      "isFixedGasLimit": false
    }
  ],
  "receipts": [],
  "libraries": [],
  "pending": [
    "0x9c8743b0d40e114a74219172d2c5647e49abb5ad91a0aa5950d71ffcea65d18b"
  ],
  "returns": {},
  "timestamp": 1732814663,
  "chain": 420,
  "commit": "b5ec843"
}