{
  "transactions": [
    {
      "hash": "0xa729472b8fe9bb400dd2ca51b2cfe734ab041694c0c26507e9431a11d88cad02",
      "transactionType": "CALL",
      "contractName": null,
      "contractAddress": "0xd2981e9346afb2aff501860c844560181f7a78fd",
      "function": "mint(address,uint256)",
      "arguments": [
        "0xB33F706B1aC2543A108F40497a14f540778798fd",
        "1000000000000000000000"
      ],
      "transaction": {
        "from": "0xb33f706b1ac2543a108f40497a14f540778798fd",
        "to": "0xd2981e9346afb2aff501860c844560181f7a78fd",
        "gas": "0x18775",
        "value": "0x0",
        "input": "0x40c10f19000000000000000000000000b33f706b1ac2543a108f40497a14f540778798fd00000000000000000000000000000000000000000000003635c9adc5dea00000",
        "nonce": "0x1",
        "chainId": "0x1a4"
      },
      "additionalContracts": [],
      "isFixedGasLimit": false
    }
  ],
  "receipts": [],
  "libraries": [],
  "pending": [
    "0xa729472b8fe9bb400dd2ca51b2cfe734ab041694c0c26507e9431a11d88cad02"
  ],
  "returns": {},
  "timestamp": 1730967467,
  "chain": 420,
  "commit": "fea953a"
}